:0400000048EF03F0D2
:100600000048656C6C6F20576F726C640000800E40
:10061000946E240EAC6E900EAB6E810EAF6E010E1A
:10062000026E1DEC03F03FEC03F0036E035033EC5D
:1006300003F013EF03F000EF00F026EF03F002C029
:10064000F6FF0800F55033EC03F0022A02C0F6FF73
:100650000800F5500009D8A430EF03F032EF03F0A2
:100660001FEF03F01200016E9EA839EF03F03BEF7D
:1006700003F034EF03F001C0ADFF9E9812009EAA74
:1006800044EF03F046EF03F03FEF03F0AE501200EB
:0E069000000EF86E060EF76E000107EF03F085
:00000001FF
